:020000040040BA
:10000000C0514520818640007D8640007D864000AD
:100010007D8640007D8640007D8640000000000017
:100020000000000000000000000000007D8640008D
:100030007D864000000000007D864000F5A2400063
:100040007D8640007D8640007D8640007D864000A4
:100050007D8640007D8640007D8640007D86400094
:100060007D8640000000000039674000496740007D
:10007000596740007D8640007D8640007D864000B7
:1000800069674000796740007D8640007D864000BA
:100090007D8640007D8640007D8640005987400077
:1000A0007D8640007D8640007D8640007D86400044
:1000B0007D8640000D6640007D8640007D864000C4
:1000C0007D8640007D864000F976400000000000FB
:1000D0000000000000000000000000000000000020
:1000E0001D6640007D8640007D8640007D86400084
:1000F0007D8640007D8640007D8640007D864000F4
:100100007D8640007D864000858740007D864000DA
:100110007D8640000000000000000000000000009C
:100120007D8640007D864000459340007D864000EE
:100130007D8640007D8640007D8640007D864000B3
:100140007D8640007D864000000000000000000029
:100150007D8640007D8640007D86400010B5054CC0
:10016000237833B9044B13B10448AFF30080012363
:10017000237010BD8810402000000000CC83410097
:100180000C4B43B10C480D4910B5AFF300800C483F
:10019000036823B910BD0A48036833B97047094B97
:1001A000002BF7D0BDE810401847064B002BF5D0C8
:1001B000184700BF00000000CC8341008C10402095
:1001C000CC8341000000000008B505F08FF803F073
:1001D0002DFCFCE703780B7043784B7043884B8011
:1001E00083888B8083798B71C379CB71083070479A
:1001F000B9B110B44B1E9CB2431E0119104613F83E
:10020000012F82EA102282EA121242EA002080EADA
:10021000023080EA421080B28B42F0D15DF8044B8C
:10022000704710467047F8B50D4611469AB104461E
:100230001A464F1EBFB2013703EB8707161D23680E
:1002400029462046984740B9A18C29448DB23246B0
:10025000BE42F3D1F8BD0020F8BDF8BDC2B12DE912
:10026000F04104460E4602F1FF381FFA88F81D1FC0
:1002700003EB8808676855F8042F31462046B847D5
:1002800040B9A18C31448EB24545F3D1BDE8F0812F
:1002900000207047BDE8F081A2B170B5561EB6B21D
:1002A000054601F10804023601EBC6066B6854F8F6
:1002B000042C34F8081C2846984728B90834B4425E
:1002C000F4D170BD0020704770BD2DE9F0410546A6
:1002D0000C4601EB4208444509D01F1D2E681A4602
:1002E00034F8021B2846B04720B93B46F3E700200C
:1002F000BDE8F081BDE8F08170B582B004460E46DD
:100300001546036801AA984708B102B070BD019A6A
:100310002A4301926368314620469847F5E770B555
:1003200082B004460D461646036801AA984708B1F4
:1003300002B070BD019A22EA060201926368294662
:1003400020469847F4E7F0B583B004460D461746BB
:100350001E46036801AA984708B103B0F0BD019A90
:1003600022EA0702324301926368294620469847F1
:10037000F3E70000074B8360074BC360074B036143
:10038000074B4361074B8361074BC361074B036214
:1003900081847047270240005D02400099024000BE
:1003A000CB024000F90240001F0340004703400019
:1003B000F8B50D461146A2B104461A464F1EFFB2CB
:1003C000013703EB4707961C2368294620469847C8
:1003D00048B994F824102944CDB23246BE42F2D135
:1003E000F8BD0020F8BDF8BDCAB12DE9F0410446C2
:1003F0000E4602F1FF385FFA88F89D1E03EB4808AD
:10040000676835F8022F31462046B84748B994F856
:1004100024103144CEB24545F2D1BDE8F081002030
:100420007047BDE8F0819AB170B5561EF6B2054628
:100430000C1D023601EB86066B6834F8022C14F8AA
:10044000041C2846984728B90434B442F4D170BD3E
:100450000020704770BD2DE9F04105460C4601EBC8
:100460000208444509D09F1C2E681A4614F8011B47
:100470002846B04720B93B46F3E70020BDE8F081AD
:10048000BDE8F08170B582B004460E46154603689B
:100490000DF10602984708B102B070BDBDF8062004
:1004A0002A43ADF806206368314620469847F3E7B3
:1004B00070B582B004460D46164603680DF106027B
:1004C000984708B102B070BDBDF8062022EA0602C6
:1004D000ADF806206368294620469847F2E7F0B554
:1004E00083B005460E4617461C4603680DF106020A
:1004F000984708B103B0F0BDBDF8062022EA070214
:10050000224392B2ADF806206B68314628469847E0
:10051000F0E70000084B8360084BC360084B0361A1
:10052000084B4361084B8361084BC361084B03626E
:1005300080F82410704700BFB1034000E903400079
:10054000270440005704400085044000B1044000E7
:10055000DF044000F8B50D4611469AB104461A462C
:100560004F1EBFB2013703EB4707961C236829468D
:100570002046984740B9218D29448DB23246BE426B
:10058000F3D1F8BD0020F8BDF8BDC2B12DE9F041AE
:1005900004460E4602F1FF381FFA88F89D1E03EB51
:1005A0004808676835F8022F31462046B84740B9F9
:1005B000218D31448EB24545F3D1BDE8F081002054
:1005C0007047BDE8F0819AB170B5561EB6B20546C7
:1005D0000C1D023601EB86066B6834F8022C34F8E9
:1005E000041C2846984728B90434B442F4D170BD9D
:1005F0000020704770BD9AB170B5561EB6B2054660
:100600000C1D023601EB86066B6834F8022C34F8B8
:10061000041C2846984728B90434B442F4D170BD6C
:100620000020704770BD2DE9F04105460C4601EBF6
:100630004208444509D09F1C2E681A4634F8021B14
:100640002846B04720B93B46F3E70020BDE8F081DB
:10065000BDE8F08170B582B004460E4615460368C9
:100660000DF10602984708B102B070BDBDF8062032
:100670002A43ADF806206368314620469847F3E7E1
:1006800070B582B004460D46164603680DF10602A9
:10069000984708B102B070BDBDF8062022EA0602F4
:1006A000ADF806206368294620469847F2E7F0B582
:1006B00083B005460E4617461C4603680DF1060238
:1006C000984708B103B0F0BDBDF8062022EA070242
:1006D000224392B2ADF806206B683146284698470F
:1006E000F0E70000084B8360084BC360084B0361D0
:1006F000084B8361084B4361084BC361084B03629D
:10070000084B436201857047550540008B0540004A
:10071000C705400027064000F70540005506400089
:1007200081064000AF064000F8B50D461146A2B163
:1007300004461A464F1EFFB2013703EB8707161D0A
:10074000236829462046984748B994F8241029443C
:10075000CDB23246BE42F2D1F8BD0020F8BDF8BDA0
:10076000CAB12DE9F04104460E4602F1FF385FFAA6
:1007700088F81D1F03EB8808676855F8042F314679
:100780002046B84748B994F824103144CEB24545C4
:10079000F2D1BDE8F08100207047BDE8F081A2B140
:1007A00070B5561EF6B2054601F10804023601EB9B
:1007B000C6066B6854F8042C14F8081C28469847A1
:1007C00028B90834B442F4D170BD0020704770BD20
:1007D0002DE9F04105460C4601EB0208444509D0DD
:1007E0001F1D2E681A4614F8011B2846B04720B971
:1007F0003B46F3E70020BDE8F081BDE8F08170B52D
:1008000082B004460E461546036801AA984708B10F
:1008100002B070BD019A2A430192636831462046B6
:100820009847F5E770B582B004460D461646036852
:1008300001AA984708B102B070BD019A22EA0602E7
:1008400001926368294620469847F4E7F0B583B0E3
:1008500004460D4617461E46036801AA984708B18C
:1008600003B0F0BD019A22EA0702324301926368A5
:10087000294620469847F3E7084B8360084BC3603E
:10088000084B0361084B4361084B8361084BC3610C
:10089000084B036280F82410704700BF290740000E
:1008A000610740009F074000D1074000FF0740005C
:1008B000250840004D08400044307047183070470C
:1008C0005830704730B583B00446C9B1134B1B682C
:1008D000ADF804301B0C8DF8063000F15805836D1F
:1008E00001A928469847B8B9236F002128469847A0
:1008F0000B4B1A68063219460B689A42FCD808E07E
:10090000036F002158309847E36C04F14400984786
:1009100010B9002084F8A50003B030BDD4414100D7
:10092000B83E402090F8A4300B700020704790F83B
:10093000A53013B9012380F8A530002070470000CE
:100940002DE9F04104460F4611469846069D079A48
:10095000443000F0E9FC04F15806089B2A7841462F
:10096000304600F071FE314604F1180000F074FCCE
:100970000C4B23600C4BA3600C4B63600C4BE3608F
:100980000C4B23610C4B6361C4F8A0706B7884F846
:10099000A430002184F8A5102046FFF793FFBDE89E
:1009A000F08100BFC5084000250940002F09400024
:1009B000BD084000B9084000C108400000B595B02E
:1009C00000230A78014602A800F03EFE0DF106025F
:1009D000702102A800F0E8FC38B9BDF8063003F039
:1009E0000703032B0CBF0020172015B05DF804FB94
:1009F00028307047183070475430704790F8703086
:100A00000B700020704790F8713013B9012380F803
:100A1000713000207047000070B58EB0064639B1C5
:100A2000C36D02224FF40271543098470EB070BD6E
:100A3000C369183098470028F8D16C460D4D0FCD8A
:100A40000FC40FCD0FC40FCD0FC495E8030084E889
:100A500003000722694606F1540000F051FF002808
:100A6000E4D1054B1A68053219460B689A42FCD846
:100A70000020DBE7D8414100B83E402070B5044675
:100A80000E4611461A46183000F0C4FE04F1540513
:100A9000049B1A783146284600F04AFF294604F1A3
:100AA000280000F077FE084B2360084BA360084B3A
:100AB0006360084BE360084B2361084B63610023CC
:100AC00084F8713070BD00BF190A4000FD09400074
:100AD000070A4000F1094000F9094000F50940000B
:100AE00030B59BB0044615461A4616A800F092FE93
:100AF00016A800F06FFE08B11BB030BD2A78214661
:100B000010A800F015FF6C46174D0FCD0FC40FCD88
:100B10000FC40FCD0FC495E8030084E8030007223B
:100B2000694610A800F0ECFE0028E5D10F4B1A68CA
:100B3000053219460B689A42FCD80B4B9B6B0E93FF
:100B40000FAB01220EA910A800F074FE034640B9B5
:100B5000074B0F9A1340B3F5082F0CBF0020172046
:100B6000CAE71846C8E700BFD8414100B83E402058
:100B700000FF0C00143070474430704709B917204B
:100B8000704710B50446036B02224FF440711430D5
:100B90009847002084F8640010BD1120704790F839
:100BA000643013B9012380F86430002070470000DE
:100BB00038B505460C46036807216088984700B1A0
:100BC00038BD6B68002120889847E0B90F4B1A6840
:100BD00002F5FA7219460B689A42FCD86B6801213B
:100BE0002088984700B138BD6B680021608898471D
:100BF00050B9064B1A6802F5FA7219460B689A4208
:100C0000FCD8002038BD38BD38BD00BFB83E4020FC
:100C100070B504460E46114600F144051A88284670
:100C200000F094F9294604F1140000F02BF9074B69
:100C30002360074BA360074B6360074BE360074BE0
:100C400023612666002384F8643070BD7D0B40006C
:100C50009B0B40009F0B4000750B4000790B400040
:100C600000B587B00A88014601A800F06FF90DF1C0
:100C70000203012240F23F4101A800F021F938B9F6
:100C8000BDF8023003F07F03332B0CBF0020172088
:100C900007B05DF804FB4C3070472030704760307F
:100CA000704710B5044649B1436E022200216030FE
:100CB000984748B9002084F8750010BD436D4C304A
:100CC00098470028F6D010BD10BD90F874300B7016
:100CD0000020704790F8753013B9012380F8753003
:100CE0000020704710B50446036F5B6890F87400ED
:100CF000984700B110BD636E0122002104F160002D
:100D0000984710BD10B50446436E0C220021603098
:100D1000984700B110BD236F9B6894F87400984702
:100D200010BD00002DE9F843044688461146994657
:100D3000089E00F14C05099A284600F0A7F904F135
:100D4000600732784946384600F018FA394604F10F
:100D5000200000F059F90E4B23600E4B23610E4B1F
:100D600063600E4BA3600E4BE3600E4B63610E4B52
:100D7000A3610E4BE361C4F87080737884F874301B
:100D8000002384F87530284600F060F9BDE8F88348
:100D9000A30C4000CB0C4000D50C4000E50C4000FB
:100DA000050D40009B0C4000970C40009F0C40003C
:100DB00030B58DB0044615461A4607A800F066F90E
:100DC00007A800F043F92A78214603A800F0D6F9D5
:100DD000134B1B680CA941F8283D0023012203A8EE
:100DE00000F068F908B10DB030BD02238DF8043071
:100DF00000238DF805308DF806308DF807306B46EE
:100E0000012201A903A800F055F90028EBD10548FB
:100E1000009B1840044B984214BF17200020E2E7C3
:100E200014424100BFFFFF0000020A0010B5C06A73
:100E3000890041F0030144681346012289B2A047AA
:100E400010BD00B583B08B098DF80430890041F0E6
:100E500001018DF80510130A8DF806308DF8072072
:100E6000C06A0368012201A9984703B05DF804FB3A
:100E700010B5C06A890041F00301446889B2A047F7
:100E800010BD000038B504460D460121FFF72AFCCD
:100E9000034B2360034B6360034BA360E56238BDE3
:100EA0002D0E4000430E4000710E400010B5920020
:100EB00093B2C268D4690A461946008AA04710BD99
:100EC00070B515461C46520092B2C668B669008AD3
:100ED000B04778B96B1E9BB26DB1A21E04EB430301
:100EE0005088010A41EA002122F8021F9A42F7D1F4
:100EF000002070BD70BD002070BDF0B583B0054608
:100F00000C461746890041F0030146680DF10603BF
:100F1000012289B2B04708B103B0F0BDBDF8062088
:100F20003A43ADF80620A3098DF80030A40044F040
:100F300001048DF80140130A8DF802308DF803206A
:100F40002B680122694628469847E5E7044B036071
:100F5000044B4360044B8360C1600282704700BF52
:100F6000AD0E4000C10E4000FB0E400011F0800F9E
:100F700001D00320704730B583B0144649008DF886
:100F8000041000238DF805308DF806308DF80730F9
:100F9000806A05681346012201A9A84720B9236881
:100FA00013F0407F02D0052003B030BD23F07F4313
:100FB0002360F9E711F0800F23D112F07F4F01D0A9
:100FC0000320704710B582B0490041F001018DF84F
:100FD0000410130C8DF80530130A8DF806308DF8C7
:100FE0000720806A04686B46012201A9A04730B936
:100FF000009B03F04073002B14BF0520002002B0BB
:1010000010BD03207047000038B504460D4601218D
:10101000FFF732FC024B2360024B6360A56238BDD0
:101020006D0F4000B50F400008B500290269C36884
:101030001B680CBF062107211088984708BD08B51A
:101040000269C3689B685088984708BD10B504467C
:101050000021FFF7E9FFA0B90B4B1A6801321946CE
:101060000B689A42FCD801212046FFF7DDFF48B902
:10107000054B1A68013219460B689A42FCD80020C9
:1010800010BD10BD10BD00BFB83E402008B5064BD6
:101090000360064B4360064B83600261C1600B68CE
:1010A00028215088984708BD291040003F10400073
:1010B0004D10400092B32DE9F04784B006461C461F
:1010C000551E4FF000094FF0040804E0013D394679
:1010D000B5F1FF3F1ED00F1D307BB368CDF80090F7
:1010E000D3F820A003AB0A464146D04798B9002C5C
:1010F000ECD09DF80C209DF80D301B0443EA0263F0
:101100009DF80F2013439DF80E2043EA022323602D
:101110000434DBE7002004B0BDE8F087002070470E
:1011200030B583B00546144649008DF804100023FD
:101130008DF805308DF806308DF807306B460122AA
:1011400001A9FFF7B7FF08B103B030BD009A2243F1
:1011500000929DF8043043F001038DF80430130C25
:101160008DF80530130A8DF806308DF8072000231E
:10117000012201A92846FFF79DFFE5E710B50346C8
:101180001046084A1A60084A5A60996018734C68F9
:10119000064B08220021A04700B910BD0120FFF72F
:1011A00013F8FAE7B51040002111400080F0FA0270
:1011B00008B5806A4900436801F0FE01984708BD00
:1011C00010B582B0FF248DF8044049008DF8051059
:1011D000806A046901A9A04702B010BD00B583B0C0
:1011E000490041F001018DF80410130A8DF8053013
:1011F0008DF80620806A036801A9984703B05DF85E
:1012000004FBF0B583B000AF9E46FF233B7149005D
:1012100041F0010179715300073323F00703ADEB6F
:10122000030D6B4692B27AB1AEF10204591C551E01
:10123000ADB20EEB450E34F8025F2E0A01F8016CD8
:1012400001F8025B7445F6D1806AC468391DA04775
:101250000C37BD46F0BD000038B504460D460121EF
:10126000FFF758F9044B2360044B6360044BA36001
:10127000044BE360A56238BDB1114000DD114000B0
:10128000C11140000312400008B50269C3685B68E1
:101290001088984708BD000010B504460021FFF7EC
:1012A000F3FFA0B90B4B1A68053219460B689A4236
:1012B000FCD801212046FFF7E7FF48B9054B1A6823
:1012C000053219460B689A42FCD8002010BD10BDAB
:1012D00010BD00BFB83E402030B583B004460D4677
:1012E00000230B700269C3689B680DF107015088E9
:1012F0009847A8B99DF807301BB12B7843F001033C
:101300002B702269E3689B680DF10701908898476C
:1013100030B99DF807302BB12B7843F002032B70C6
:1013200003B030BD0020FBE710B504460C4B036052
:101330000C4B83600C4B43600261C1600B6807215A
:10134000108898472269E3681B68082150889847ED
:101350002269E3681B6808219088984710BD00BF88
:101360008912400099124000D912400038B5044655
:10137000236B002BFCDCE36A002BFCD1E36A013316
:10138000E362E36A012B03D0E36A013BE362F2E725
:10139000636A5D6900230A46032194F82800A84780
:1013A000E36A013BE36238BD70B582B0044615467E
:1013B0008DF80710236B002BFCDCE36A002BFCD1BB
:1013C000E36A0133E362E36A012B03D0E36A013B82
:1013D000E362F2E7636A5E6901230DF107021946D1
:1013E00094F82800B047014640B9636A9E6800231C
:1013F0002A46022194F82800B0470146E36A013BDF
:10140000E3622A88130A43EA02232B80084602B0CB
:1014100070BD70B582B0064615464900CCB243682F
:101420000DF106022146984708B102B070BDBDF823
:1014300006202A43ADF8062044F001048DF8004050
:10144000130A8DF801308DF8022033686946304662
:101450009847EAE770B5064602EB42028D18A942AA
:1014600006D0CC1C3046FFF781FF18B92146F6E7BD
:10147000002070BD70BDF8B590F83D40042A04D935
:10148000E4B214B112221046F8BD046B002CFCDC4F
:10149000C46A002CFCD1C46A0134C462C46A012C41
:1014A0000DD0C46A013CC462F2E7636A5E6900233E
:1014B0002A46790094F82800B04702460DE01D4600
:1014C00017460A460446436A5E690123022190F8E2
:1014D0002800B04702460028E7D0E36A013BE362F8
:1014E000D1E7F8B590F83D50042A04D9EDB215B112
:1014F00012273846F8BD046B002CFCDCC46A002CB3
:10150000FCD1C46A0134C462C46A012C0DD0C46A1F
:10151000013CC462F2E7736A9F6800232A466100B7
:1015200096F82800B84707460DE01D4614460A46BF
:101530000646436A5F690123022190F82800B847F4
:1015400007460028E7D0F36A013BF362601E80B2D1
:10155000002CCED0AA1E05EB400051880B0A43EAAE
:10156000012322F8023F8242F7D1C2E701644264BC
:101570000020704738B54B1E9BB2812B01D8032049
:1015800038BD0D46044690F83D306BB1002380F81D
:101590003D3094F83C30002BFBD1236B013B23639F
:1015A0000021206A08F09AFDC5B1823DA56394F838
:1015B0003D309BB9012384F83D30236B002BFCD1D7
:1015C000236B01332363236B012B03D0236B013B7C
:1015D0002363F2E70121206A08F080FD94F83D3092
:1015E00083F0010384F83C30002038BD90F83D3092
:1015F00013B190F83C3003B1704710B50446012395
:1016000080F83C30816B406B07F03CF9236B013B69
:101610002363236C0BB1606C984710BD08B50023A1
:1016200080F83C30036B002BFCD1036B0133036368
:10163000036B012B03D0036B013B0363F2E7406BA9
:1016400007F07CF908BD000070B5044610461D4641
:101650001F4B63601F4B23601F4B63611F4BA360D5
:101660001F4B23611F4BE3601F4BA3611F4BE361C3
:10167000616284F82820256200232364636484F86F
:101680003D30012284F83C20E36223634E68184B0E
:1016900008220321B04778B96DB107F089F860637B
:1016A0002246144907F0DCF850B922461249206A54
:1016B00008F07CFC40B970BD0120FEF785FDEBE72A
:1016C0000020FEF781FDF0E70020FEF77DFDF2E748
:1016D000A91340006D13400013144000551440003E
:1016E000E314400077144000751540006D1540006C
:1016F00080F0FA021D164000ED15400010B582B0D2
:101700000C0AADF804400902ADF80610806A0468BE
:1017100001A9A04702B010BD08B513460122FFF78A
:10172000EDFF08BDF0B583B000AF9E46124B43EA13
:101730001123BB800902F9809300083323F00703CB
:10174000ADEB030D6B467AB1AEF10404991C551E46
:10175000ADB20EEB850E54F8045F2E0C21F8026C2E
:1017600021F8045B7445F6D1806A4468391DA047AE
:101770000C37BD46F0BD00BF0080FFFF00B583B051
:1017800002AB43F8042D0122FFF7CCFF03B05DF854
:1017900004FB000038B504460D460121FEF7EAFDC2
:1017A000044B2360044B6360044BA360044BE36071
:1017B000A56238BD191740007D174000FD16400096
:1017C0002517400008B5C26883685B681088984791
:1017D00008BD000010B504460021FFF7F3FFA0B9D3
:1017E0000B4B1A68013219460B689A42FCD801214A
:1017F0002046FFF7E7FF48B9054B1A680132194642
:101800000B689A42FCD8002010BD10BD10BD00BF6F
:10181000B83E402008B5054B0360054B4360C260ED
:1018200081600B6807211088984708BDC5174000E4
:10183000D5174000F8B5054617461C4603699E6952
:1018400001230A460221007DB04700B1F8BD2B6993
:10185000DE68002322467900287DB04770B97A1EE1
:1018600092B267B1013204EB820223684FEA33433C
:1018700044F8043BA242F8D10020F8BDF8BD002096
:10188000F8BDF8B5044616461F4603699D69012355
:101890000A460221007DA84700B1F8BD23699D6971
:1018A00000233A467100207DA847F8BDF0B585B009
:1018B000074615460E0AADF8086009028CB2ADF86D
:1018C0000A4003AB012202A9FFF7B4FF08B105B03B
:1018D000F0BD039A2A430392084B3343ADF804301A
:1018E000ADF80640130CADF80030ADF802206B46A1
:1018F000012201A93846FFF7C4FFE8E70080FFFF97
:101900009AB1F8B506460C46551EADB2013501EB4D
:10191000C5050127231D3A4621463046FFF7B1FF92
:1019200028B90834AC42F5D1F8BD00207047F8BDA5
:1019300010B5034610460A4A1A600A4A5A600A4A13
:101940009A600A4ADA60196118754C68084B1022CF
:101950000021A04700B910BD0120FEF735FCFAE7D1
:101960003518400083184000AD18400001194000B0
:1019700080F0FA0210B5144640EA01401A462146AA
:1019800008F0E4FAC0B210BD10B5144640EA0140B8
:101990001A46214608F0DDFAC0B210BD082A01D06F
:1019A0008820704710B50C465A68196840EA044010
:1019B00008F0D1FAC0B210BD012803D0022809D026
:1019C00089207047102A01D088207047064A1A6083
:1019D00000207047102A01D08820704708B5186889
:1019E00009F0D0F8C0B208BDC4014020042801D0DD
:1019F0008920704709B18A2070470AB18820704752
:101A000008B508F0CFFB08B1C0B208BD012008BD81
:101A100018B1032812D0892070470AB18820704776
:101A2000009B1B88212B01D8822070470C4B019A08
:101A300013602223009A1380002070470AB1882087
:101A40007047009B1B880D2B01D882207047054BE7
:101A5000019A13600E23009A13800020704700BF84
:101A600090014020B401402070B582B00646154672
:101A70001C46032919D004291FD0012902D089202E
:101A800002B070BD072B01D88820F9E76946069897
:101A9000FEF7A0FBA4F1080334689BB2069A083253
:101AA0006946E8B2A047C0B2EAE70BB18820E7E791
:101AB0004368D0B29847C0B2E2E70BB18820DFE7B5
:101AC0008368D0B29847C0B2DAE709B1892070477D
:101AD000042B01D08820704708B5C36802990968B3
:101AE000D0B29847C0B208BD70B50D46144619462D
:101AF00012F4004F0CD1042B01D0882070BD466831
:101B0000049B1B682A0AE1B2E8B2B047C0B270BDBC
:101B1000EEB2C2F380332D0A022D0BD0042D10D06B
:101B2000012D01D0892070BD4469049A3046A04738
:101B3000C0B270BD8469049A49083046A047C0B25B
:101B400070BDC469049A89083046A047C0B270BD10
:101B500070B51E46CDB2C2F380330C0A022C0DD0F4
:101B6000042C13D0012C01D0892070BD8468049A04
:101B7000126831462846A047C0B270BDC468049AB6
:101B8000126871082846A047C0B270BD0469049A63
:101B90001268B1082846A047C0B270BD70B582B0C7
:101BA000079C25889D4202D2822002B070BD1D464E
:101BB0000646C8B2C2F3803223800C0A022C0ED033
:101BC000042C15D0012C01D08920EEE7089B1B685E
:101BD0000092346A069A2946A047C0B2E5E7089BFE
:101BE0001B680092746A069A6908A047C0B2DCE7D5
:101BF000089B1B680092B46A069AA908A047C0B265
:101C0000D3E700000021084B1960084B1868084B07
:101C10001A680244074B1A60074B1B681B1A074AD5
:101C20001360074B19607047C0104020B01040206F
:101C3000A8104020B4104020AC104020BC10402020
:101C4000B8104020084B1A680432434203F00303E3
:101C500010440344054909688B4203D8044B1868B3
:101C60001044704700207047C0104020BC10402036
:101C7000B410402070B40A4C0A4B1E6825687319D2
:101C8000705559709A70110AD9702368043313443F
:101C9000524202F003021A44226070BC704700BF37
:101CA000C0104020B4104020434203F00303184406
:101CB000044A136803441360034A1368181A106037
:101CC000704700BFA4104020B0104020042A01D06B
:101CD00088207047012803D0022805D0892070474A
:101CE000034A1A6000207047024A1A6000207047B9
:101CF000AC104020C0104020022801D0892070473D
:101D000010B50F4802680F490B689B1A029C248883
:101D1000A34228BF2346029C23800B4B1B6813441D
:101D2000039C2360029B1B88134403600A68934250
:101D300001D0002010BDFFF765FF002010BD00BFDF
:101D4000B8104020C0104020B41040202DE9F04FC2
:101D500089B01446012804D0FF2800F0E5808920CE
:101D60000AE062B1814A1568814A1268521BA24298
:101D700080F0CC808220C0B209B0BDE8F08F7D4BEE
:101D80001B687D4A1360794A12684AB193F8008053
:101D9000072A40F2B980DFF8D491DFF8DCB12CE0FB
:101DA000002045E0DBF800800495D9F800309D4222
:101DB00001D90B203CE00020FFF744FF002800F091
:101DC000CE80CDF800802B463A463146504601F091
:101DD00067FC002201464020FFF74CFF0498FFF704
:101DE00063FFD9F80020002A00F08A80DBF8003079
:101DF00093F80080072A40F2858093F801A0DA78F2
:101E00009E7846EA02265A791F7947EA0227DA794C
:101E10009D7945EA02250820FFF746FFB8F1430FF8
:101E20002CD0B8F1C00F07D0B8F1400FBAD00520C0
:101E300000224E4B1A609EE72846FFF703FF8046BC
:101E4000002800F08E8008AB43F8040D00932B4669
:101E50003A463146504601F0D1FC061E002818BF14
:101E600025460799884503D02A4640460CF0E4FAF7
:101E70002A463146C020FFF7FDFEB2E70495D9F8A7
:101E800000309D4201D90B20D2E7DBF800803B4BAC
:101E9000186804383A4B1B68C01A4FF6FF73984213
:101EA00028BF184680B2ADF81A00FFF7CBFE0590A8
:101EB000002858D008AB43F8040D02930DF11A0323
:101EC0000193CDF800802B463A463146504601F04A
:101ED0003BFD054610B10023ADF81A30079905986F
:101EE000884203D0BDF81A200CF0A6FABDF81A20DB
:101EF00029464320FFF7BEFE0498FFF7D5FE70E7A2
:101F0000002095E70B2093E70B2091E7194A106812
:101F10002246194628440CF08FFA2C44134B1C60BF
:101F2000FFF770FE002026E7012902D08A20C0B208
:101F300022E7042A01D08820F9E7124A14681868B9
:101F40000021C8220023C73041F100010CF062F8E3
:101F500020440C4A13689842FCD80020E7E7072089
:101F600066E7072064E7072062E700BFB010402063
:101F7000AC104020A8104020A4104020BC104020ED
:101F8000C0104020B83E402008B5044B1860044BF8
:101F90001960044801F07CFB08BD00BFA810402078
:101FA000AC1040208C00402070B50D4614461946F8
:101FB00012F4004F13D10BB1882070BD05F47043AB
:101FC000174901EAC531114304D182681846904788
:101FD000C0B270BD426818469047C0B270BD12F4DE
:101FE000804F01D0872070BD12F4007F07D00BB165
:101FF000882070BDC36828469847C0B270BD12F4EF
:10200000807F05D1C369049A28469847C0B270BD45
:10201000066A049B0A46E1B22846B047C0B270BDCA
:102020000080FF0738B50D4611461A46446A049BE6
:102030002846A047C0B238BD12F4004F01D18A2013
:10204000704712F4804F01D087207047F8B51E46C4
:1020500014460D4612F4807F07D10369069A126870
:10206000314628469847C0B2F8BD4769069B1B68B1
:102070003246E1B22846B847C0B2F8BD38B50D4681
:1020800011461A468469049B1B682846A047C0B2C3
:1020900038BD012B01D08820704700B583B083681C
:1020A0000DF1070110469847049B1B689DF8072017
:1020B0001A70C0B203B05DF804FB0BB18820704702
:1020C00008B5012905D90368090A10469847C0B226
:1020D00008BD4368003118BF012110469847C0B2BF
:1020E00008BD9020704738B51C46012903D002294D
:1020F0000ED0902038BD12F0030F01D0882038BDDB
:1021000005680023C2F387022146A847C0B238BD44
:10211000042A01D0882038BDDB78A178090441EA7F
:10212000036123781943637841EA0321436821F06E
:102130007F42090E9847C0B238BD012901D09020D6
:10214000704712F0030F01D08820704710B5029934
:102150000988914201D2822010BD1946039B1B6859
:10216000029C22800468C2F38702A047C0B210BD5F
:10217000902070472DE9F04100AF052900F2AA80B8
:10218000DFE801F02A144003A862023A92B212F08A
:10219000030F01D0882064E099184D78995CC468D9
:1021A000920841EA0521A047C0B25AE0062A01D0B0
:1021B000882056E059791A79120442EA0162997826
:1021C0000A43DD785C781978836942EA052241EA9E
:1021D00004219847C0B244E0062A01D0882040E09C
:1021E00059791A79120442EA016299780A43DD7832
:1021F0005C781978C36942EA052241EA04219847CC
:10220000C0B22EE00A2A01D088202AE05A7A1C7A2D
:10221000240444EA02649A79144393F807C0597974
:102220001A79120442EA016299780A4393F803E0AA
:102230005E781978056A44EA0C2342EA0E2241EAE4
:102240000621A847C0B20CE06D462349A1FB02411C
:10225000890801EB4101A2EB410189B221B188203B
:10226000AD46BD46BDE8F081A1F15531A1FB02129A
:1022700092085FFA82FE4FEACE010831ADEB010D04
:102280006946BEF1000F20D006336E464FF0000CB9
:1022900013F8058C13F8064C44EA0824348013F82C
:1022A000018C13F8024C240444EA086413F8048CEB
:1022B00044EA080413F8038C44EA082474600CF11F
:1022C000010C06330836E645E2D80369D2B29847D6
:1022D000C0B2C5E79020C4E7ABAAAAAA38B51C468D
:1022E000042903D005291DD0902038BD042A01D02F
:1022F000882038BD5B78227842EA0322049B1B8841
:10230000B3EB820F01D2822038BDE578A17893002B
:10231000049C23808468059B1B6841EA0521A04733
:10232000C0B238BD12F0010F01D0882038BD52086C
:10233000049B1B88D1B2B3EB810F01D2822038BD40
:102340000A468B0004990B804569059B1B68214652
:10235000A847C0B238BD9020704770B51D4602290D
:1023600016D004292AD0012901D0902070BD072A57
:1023700001D8882070BD043A91B211F0030F01D04A
:10238000882070BD46688A081944B047C0B270BD45
:10239000062A01D0882070BD5A791B791B0443EAB4
:1023A0000263AA781343EA786E782978846843EA4E
:1023B000022241EA0621A047C0B270BD12F0070F09
:1023C00001D0882070BDC368D20829469847C0B2A2
:1023D00070BD012901D090207047062A01D08820C5
:1023E000704738B559781A7842EA01220499098869
:1023F000B1EB820F01D2822038BD1946059B1B68C4
:102400009400049D2C8004680231A047C0B238BDFE
:1024100030B583B0174CA478844226D9164C54F8B2
:10242000200028B31D461446012906D019B10329FE
:102430000FD08F201AE0902018E0C3689847089BBF
:102440000193079B0093069B2A46214600F02AFD34
:102450000CE003699847089B0193079B0093069B38
:102460002A46214600F0BFFD00E08D2003B030BDBC
:102470008D20FBE798004020C410402030B583B089
:102480001C4CA47884422FD91B4C54F8200070B304
:102490001D461446012904D099B1032909D08F2083
:1024A00023E0C3689847069B2A46214600F09CFC1F
:1024B0001BE003699847069B2A46214600F06EFD03
:1024C00013E0022A01D090200FE0012B01D08820D8
:1024D0000BE083680DF107019847069B1B689DF888
:1024E00007201A70C0B200E08D2003B030BD8D20EF
:1024F000FBE700BF98004020C410402038B5214CB5
:10250000A478844238D9204C54F82000002835D0D3
:102510001D461446012904D099B1032909D08F2002
:1025200038BDC3689847049B2A46214600F05EFCEC
:1025300038BD03699847049B2A46214600F030FDC8
:1025400038BD42B1012A1BD10BB1882038BD436888
:102550009847C0B238BD012B01D0882038BD049BFC
:102560001978012901D98A2038BD0368003118BFC4
:1025700001219847C0B238BD8D2038BD8D2038BDAF
:10258000902038BD98004020C410402010B504466B
:102590000D4B1B7863B10D4B9B78072B12D8591C40
:1025A0000A4A91700A4A42F823400123184610BD96
:1025B000064801F065F803460028F7D00122024BD7
:1025C0001A70E8E70023F1E7E4104020980040206B
:1025D000C410402030B583B01E4CA478844232D958
:1025E0001D4C54F82000002830D01D461446032905
:1025F0002ED8DFE801F00204101C902024E0C3680C
:102600009847089B0193079B0093069B2A46214607
:1026100000F066F918E003699847089B0193079B4F
:102620000093069B2A46214600F0C5F90CE0436959
:102630009847089B0193079B0093069B2A462146D7
:1026400000F042FE00E08D2003B030BD8D20FBE79E
:102650008F20F9E7A8004020E810402030B583B073
:10266000214CA478844237D9204C54F8200000280B
:1026700035D01D461446032933D8DFE801F01A028D
:102680000A12C3689847069B2A46214600F0A6F81E
:1026900023E003699847069B2A46214600F051F93A
:1026A0001BE043699847069B2A46214600F0B9FD86
:1026B00013E0022A01D090200FE0012D01D08820E4
:1026C0000BE083680DF107019847069B1B689DF896
:1026D00007201A70C0B200E08D2003B030BD8D20FD
:1026E000FBE78F20F9E700BFA8004020E81040205A
:1026F00038B5264CA47884423FD9254C54F82000A4
:1027000000283CD01D46144603293AD8DFE801F0E2
:102710001A020A12C3689847049B2A46214600F011
:102720005FF838BD03699847049B2A46214600F0AC
:1027300021F938BD43699847049B2A46214600F099
:1027400073FD38BD42B1012A1DD10DB1882038BDBD
:1027500043689847C0B238BD012D01D0882038BDEC
:10276000049B1978012901D98A2038BD03680031FA
:1027700018BF01219847C0B238BD8D2038BD8D20CB
:1027800038BD8F2038BD902038BD00BFA800402044
:10279000E810402010B504460D4B1B7863B10D4B7B
:1027A0009B78072B12D8591C0A4A91700A4A42F8A2
:1027B00023400123184610BD064800F061FF034680
:1027C0000028F7D00122024B1A70E8E70023F1E756
:1027D00008114020A8004020E810402090207047B9
:1027E000F8B500AF1C46052975D8DFE801F01F12C7
:1027F0002C03743D013A91B211F0010F01D08820F1
:102800003EE0C5682346C1F34702615CA847C0B2F9
:1028100036E0032A01D0882032E0A178627883690B
:1028200042EA012221789847C0B229E0032A01D068
:10283000882025E0A1786278C36942EA01222178E4
:102840009847C0B21CE0052A01D0882018E02679FC
:10285000E378A1786278056A43EA062342EA012216
:102860002178A847C0B20BE06D461C4BA3FB0213B6
:102870005B0803EB4303D31A9BB21BB18820AD4620
:10288000BD46F8BDA3F15533A3FB0232C2F34702A4
:102890009300083323F00703ADEB030D6946B2B193
:1028A000E31C6E4602F1010E0EEB4E0E744413F85B
:1028B00003EC86F800E013F801CC13F802EC4EEAC2
:1028C0000C2EA6F802E0033304369C42EFD10369D4
:1028D0009847C0B2D3E79020D2E700BFABAAAAAA1C
:1028E00038B51C46042903D0052917D0902038BDDF
:1028F000022A01D0882038BD1A78049B1B88B3EBCC
:10290000420F01D2822038BD61785300049C23809D
:102910008468059B1B68A047C0B238BDD1B2049B38
:102920001B88B3EB410F01D2822038BD4B00049AC3
:1029300013804569059B1B680A462146A847C0B21B
:1029400038BDA8B110B582B0082902D0902002B0DD
:1029500010BD012A01D08820F9E71C4643680DF11B
:102960000701984723689DF807201A70C0B2EEE768
:102970008F207047E8B110B5012903D0052911D087
:10298000902010BD012A01D0882010BD197801299E
:1029900001D98B2010BD0368003118BF0121984771
:1029A000C0B210BD0AB1882010BD83689847C0B27C
:1029B00010BD8F20704700280CBF8F2090207047DB
:1029C00030B583B01E4CA478844232D91D4C54F8E3
:1029D0002000002830D01D46144603292ED8DFE8F9
:1029E00001F00204101C902024E043699847089BE2
:1029F0000193079B0093069B2A46214600F0E0FBCB
:102A000018E083699847089B0193079B0093069BF6
:102A10002A46214600F0BDFA0CE0C3699847089B9E
:102A20000193079B0093069B2A462146FFF785FBEF
:102A300000E08D2003B030BD8D20FBE78F20F9E74B
:102A4000B80040200C11402030B583B0214CA47850
:102A5000844237D9204C54F82000002835D01D4638
:102A60001446032933D8DFE801F01A020A12436939
:102A70009847069B2A46214600F001FB23E0836924
:102A80009847069B2A46214600F049FA1BE0C36995
:102A90009847069B2A462146FFF723FB13E0022AAC
:102AA00001D090200FE0012D01D088200BE00369B8
:102AB0000DF107019847069B1B689DF807201A70C7
:102AC000C0B200E08D2003B030BD8D20FBE78F2029
:102AD000F9E700BFB80040200C11402038B52F4C5A
:102AE000A478844251D92E4C54F8200000284ED0AE
:102AF0001D46144603294CD8DFE801F01A020A12D9
:102B000043699847049B2A46214600F0BBFA38BD2A
:102B100083699847049B2A46214600F019FA38BD7C
:102B2000C3699847049B2A462146FFF7DCFA38BD63
:102B3000042A30D8DFE802F00A032F1B22000DB16F
:102B4000882038BD43689847C0B238BD012D01D0F8
:102B5000882038BD049B1978012901D98A2038BD05
:102B60000368003118BF01219847C0B238BD0DB1CC
:102B7000882038BD83689847C0B238BD0DB1882021
:102B800038BDC3689847C0B238BD8D2038BD8D2090
:102B900038BD8F2038BD902038BD00BFB800402020
:102BA0000C11402010B504460D4B1B7863B10D4B42
:102BB0009B78072B12D8591C0A4A91700A4A42F88E
:102BC00023400123184610BD064800F059FD034676
:102BD0000028F7D00122024B1A70E8E70023F1E742
:102BE0002C114020B80040200C11402030B583B09B
:102BF0001E4CA478844232D91D4C54F82000002881
:102C000030D01D46144603292ED8DFE801F0020417
:102C1000101C902024E0C3689847089B0193079BF1
:102C20000093069B2A462146FFF758FB18E04369AC
:102C30009847089B0193079B0093069B2A462146D1
:102C400000F018FA0CE003699847089B0193079B72
:102C50000093069B2A462146FFF7BBFB00E08D2030
:102C600003B030BD8D20FBE78F20F9E7C80040207E
:102C70003011402070B582B0234CA47884423BD9F7
:102C8000224C54F82000002839D01E4615460C4628
:102C9000032936D8DFE801F01A020A12C368984700
:102CA000069B32462946FFF763FA26E043699847B8
:102CB000069B3246294600F0B7F91EE003699847A3
:102CC000069B32462946FFF746FB16E0022A01D052
:102CD000902012E0012E01D088200EE083680DF1D3
:102CE0000701984730B9069B1B689DF807201A70AA
:102CF000204602E0C0B200E08D2002B070BD8D2001
:102D0000FBE78F20F9E700BFC800402030114020CA
:102D100038B5214CA478844238D9204C54F820008E
:102D2000002835D01D461446032933D8DFE801F0CA
:102D30001A020A12C3689847049B2A462146FFF7E5
:102D400019FA38BD43699847049B2A46214600F08A
:102D500070F938BD03699847049B2A462146FFF75E
:102D6000FCFA38BD0AB1902038BD012D01D0882071
:102D700038BD049B1978012901D98A2038BD036820
:102D8000003118BF01219847C0B238BD8D2038BD31
:102D90008D2038BD8F2038BDC80040203011402024
:102DA00010B504460D4B1B7863B10D4B9B78072B78
:102DB00012D8591C0A4A91700A4A42F8234001234A
:102DC000184610BD064800F05BFC03460028F7D00B
:102DD0000122024B1A70E8E70023F1E7501140206E
:102DE000C80040203011402090207047F8B50529D8
:102DF00056D8DFE801F0241434035549023A92B260
:102E000012F0010F01D08820F8BD99184D78995C17
:102E1000C468520841EA0521A047C0B2F8BD042A9F
:102E200001D08820F8BDDD789A785C781978C3697C
:102E300042EA052241EA04219847C0B2F8BD042ABB
:102E400001D08820F8BDDD789A785C781978036A1B
:102E500042EA052241EA04219847C0B2F8BD062A99
:102E600001D08820F8BD93F805E01F79DE789A78C4
:102E70005D781978446A47EA0E2342EA062241EA5D
:102E80000521A047C0B2F8BD12F0030F01D0882081
:102E9000F8BD4469C2F387021946A047C0B2F8BD25
:102EA0009020F8BD38B51C46042903D005291DD053
:102EB000902038BD042A01D0882038BD5B78227864
:102EC00042EA0322049B1B88B3EB420F01D282200B
:102ED00038BDE578A1785300049C23808468059B65
:102EE0001B6841EA0521A047C0B238BD12F0010FAE
:102EF00001D0882038BD049B1B88510802F4FF7262
:102F0000934201D2822038BDCAB2530004990B808B
:102F10008569059B1B682146A847C0B238BDA8B18A
:102F200010B582B0062902D0902002B010BD012A4F
:102F300001D08820F9E71C4643680DF10701984746
:102F400023689DF807201A70C0B2EEE78F20704703
:102F5000E8B110B5012903D0052911D0902010BD8A
:102F6000012A01D0882010BD1978012901D98B20B0
:102F700010BD0368003118BF01219847C0B210BDD1
:102F80000AB1882010BD83689847C0B210BD8F2059
:102F9000704700280CBF8F2090207047902070470A
:102FA00038B5012903D002290DD0902038BD12F088
:102FB000030F01D0882038BD0468C2F38702194688
:102FC000A047C0B238BD042A01D0882038BDDD78C2
:102FD0009A785C781978836842EA052241EA0421EC
:102FE0009847C0B238BD012901D090207047042A0B
:102FF00001D08820704770B559781A7842EA0122CA
:1030000004990988B1EB420F01D2822070BDDD78AE
:103010009978059B1B685400049E3480446841EAFB
:103020000521A047C0B270BD00280CBF8F209020A2
:103030007047E8B110B5012903D0052911D09020BF
:1030400010BD012A01D0882010BD1978012901D9AD
:103050008B2010BD0368003118BF01219847C0B212
:1030600010BD0AB1882010BD43689847C0B210BD9A
:103070008F20704700280CBF8F2090207047902031
:1030800070470000F8B500AF1C46052900F2938098
:10309000DFE801F0251238039155013A91B211F0A1
:1030A000030F01D0882056E0C5682346C1F387028C
:1030B000615CA847C0B24EE0052A01D088204AE0F2
:1030C0002279E3781B0443EA026362781343A2780F
:1030D000856943EA02222178A847C0B23BE0052A6D
:1030E00001D0882037E02279E3781B0443EA0263A9
:1030F00062781343A278C56943EA02222178A8477F
:10310000C0B228E0092A01D0882024E0227AE3799D
:103110001B0443EA026362791343A6792179E278BA
:10312000120442EA016261780A43A178056A43EA1F
:10313000062342EA01222178A847C0B20BE06D467F
:103140001E4BA3FB02139B0803EB8303D31A9BB212
:103150001BB18820AD46BD46F8BDA3F13333A3FBB8
:103160000232C2F38702D3000833ADEB030D694688
:10317000EAB1661D6B4602F1010C0CEB8C0CA44409
:1031800016F8054C1C7016F801EC16F8024C2404D5
:1031900044EA0E6416F804EC44EA0E0416F803EC54
:1031A00044EA0E245C6005360833B445E8D103696F
:1031B0009847C0B2CEE79020CDE700BFCDCCCCCCB5
:1031C00038B51C46042903D0052917D0902038BDF6
:1031D000022A01D0882038BD1A78049B1B88B3EBE3
:1031E000820F01D2822038BD61789300049C238035
:1031F0008468059B1B68A047C0B238BDD1B2049B50
:103200001B88B3EB810F01D2822038BD8B00049A5A
:1032100013804569059B1B680A462146A847C0B232
:1032200038BD90207047000038B51C46013903298D
:1032300046D8DFE801F002172430032A04D012F048
:10324000010F06D0882038BD036821469847C0B2D8
:1032500038BD023A91B2C56823464A082144A847BE
:10326000C0B238BD032A01D0882038BDA178627869
:10327000436942EA012221789847C0B238BD022A48
:1032800001D0882038BD61782278836942EA012123
:103290009847C0B238BD0B4BA3FB02135B0803EB8E
:1032A0004303D31A9BB20BB1882038BDA3F1553329
:1032B000A3FB02328368520821469847C0B238BD4A
:1032C000902038BDABAAAAAA012901D0902070474E
:1032D00010B51946012A03D0042A11D0882010BD48
:1032E000029B1B88012B01D8822010BD039B1A680A
:1032F0000223029C2380436809789847C0B210BD1E
:103300005B780A7842EA0322029B1B88B3EB420FE8
:1033100001D2822010BD5300029C23800469039BCC
:103320001B680231A047C0B210BD10B40478BCB114
:10333000426813888B420FD000F10803013CE4B2CD
:10334000023400EB8400834205D053F8042B148828
:103350008C42F8D100E0002210465DF8044B704723
:103360000022F9E70378072B06D85A1C027000EBFD
:1033700083004160012070470020704770B582B023
:1033800014461D46FFF7D1FF58B1069A00924668D1
:103390002B46220AC4F3031104F00F00B04702B019
:1033A00070BD8E20FBE770B582B0144679B11D4622
:1033B000FFF7BBFFB8B1069A009286682B46220A37
:1033C000C4F3031104F00F00B04702B070BD114602
:1033D000FFF7ABFF28B1069A1268837813700020BC
:1033E000F3E78E20F1E78E20EFE770B584B00A9CFA
:1033F00099B11E461546FFF798FF48B30294099A03
:103400000192089A0092C46833462A0AC5F3031150
:1034100005F00F00A04704B070BD03785D00099A65
:103420001288AA4201D28820F5E76BB1002300EB95
:10343000830252681188226822F8021B226001333D
:10344000DBB202789A42F2D8099B1D800020E2E7A5
:103450008E20E0E7064B1860062907D9063989B2A5
:10346000044B19800122044B1A7070470021F7E7C2
:103470005C1140205A114020601140202DE9F04F8E
:1034800087B00290674B1B68002B00F0C280664B30
:103490001D881DB9112007B0BDE8F08F4B1E0ED05E
:1034A000064600EBC300406848B906EBC104D9B238
:1034B000013B04D0083C54F8040C0028F7D05B4BC7
:1034C0005A70DDE91034234314BF08230023012977
:1034D0002DD9D122554B1A700591002900F09B80FF
:1034E000029B04930027DFF84CB1DFF83C81049B7A
:1034F0005D68059B03F1FF3A109B119A1343BA458F
:1035000014BF00220122002B08BF0022039202B147
:103510000835002D73D09BF80030002B7DD0029B26
:1035200053F83760414CDFF8FC90019744E0029873
:1035300042681344AB4203D903680BB1002AC8D1D7
:10354000DDE9103423430CBFD322D722374B1A7046
:10355000029803684BB9354A137843F00803137097
:10356000334B024604321A600293029C6368002BBC
:10357000B2D12E4A137843F00803137020680BF081
:10358000BFF9A84228BF28466060042802D0012362
:103590000593A5E70523029A5360F8E70021254A21
:1035A000117078E7D623237001E0D02323702DB368
:1035B0009BF80030002B32D0B8F80030AB4228BF67
:1035C0002B46A380DDE9102331462046D9F8007050
:1035D000B8470028E2D1638801336380A388ED1ADD
:1035E0001E44019B9A45E0D1B8F800309D42DCD8DA
:1035F000039B002BD6D1D2232370D8E7019F01373C
:10360000049B08330493059B9F42FFF470AF002096
:1036100041E711203FE700203DE70A203BE70A2071
:1036200039E700BF5C1140205A114020541140205E
:10363000D80040206011402000B585B00290039171
:10364000DDE90601CDE90001012102A8FFF716FF1F
:1036500005B05DF804FB000010B4054C206005487F
:10366000016005490A60054A13605DF8044B704724
:10367000B0114020C0114020AC114020B4114020B6
:1036800008B501460148FFF76DFE08BD64114020F2
:10369000024B1860003018BF01207047BC11402059
:1036A00030B583B00C4611461A460D285ED00AD9B3
:1036B00020286BD02AD930287AD0802833D02128EE
:1036C0006DD0862033E0032838D00FD8002830D0C2
:1036D0000128F6D1414B1868002871D0069B009351
:1036E00013460A462146FEF7E8FC20E0042831D0C4
:1036F0000528E6D13A4B1868002867D0069B00934E
:1037000013460A462146FEF7EFF910E00E2838D09E
:103710001F28D6D1334B1B68002B5BD01D68069B3E
:103720002046A84703E0069B2046FEF75FF903B05A
:1037300030BD069B2046FEF727F9F8E72A4B1868AC
:1037400000283FD0069B009313460A462146FEF709
:103750002BFCECE7244B1868002835D0069B00931F
:1037600013460A462146FEF75DFCE0E71F4B18684A
:1037700070B3069B009313460A462146FEF774F980
:10378000D5E7069B2046FEF709F9D0E7069B009394
:1037900013460A4621461648FFF7F0FDC7E7069B89
:1037A000009313460A4621461248FFF7E7FDBEE79D
:1037B000114B1B6883B11D68069B2046A847B6E7DE
:1037C0008C20B4E78C20B2E78C20B0E78C20AEE7E9
:1037D0008C20ACE78C20AAE78C20A8E7B011402011
:1037E000C0114020BC114020B4114020AC11402039
:1037F0006411402088114020B811402030B583B0BA
:103800000C4611461A460D285AD022D803283FD01C
:103810000FD8002837D0012876D1434B18680028EC
:1038200074D0069B009313460A462146FEF731FCEE
:1038300027E0042838D0052866D13C4B18680028BA
:103840006AD0069B009313460A462146FEF780F98C
:1038500017E0212847D00CD81F283CD0202853D16E
:10386000069B009313460A4621463148FFF79BFD0D
:1038700007E0302840D0802846D1069B2046FEF73E
:103880009BF803B030BD069B2046FEF773F8F8E7BF
:10389000284B186800283BD0069B009313460A4625
:1038A0002146FEF7C9FBECE7224B1868002831D00F
:1038B000069B009313460A462146FEF7DFFBE0E72E
:1038C0001D4B186850B3069B009313460A462146C9
:1038D000FEF7FBF8D5E7194B1B680BB35D68069B39
:1038E0002046A847CDE7069B009313460A4621468B
:1038F0001348FFF758FDC4E7124B1B6893B15D688E
:10390000069B2046A847BCE78620BAE78C20B8E78C
:103910008C20B6E78C20B4E78C20B2E78C20B0E78F
:103920008C20AEE78C20ACE7B0114020C0114020C5
:1039300064114020B4114020AC114020BC11402043
:1039400088114020B811402030B585B00C46114692
:103950001A46202831D007D9302848D0802814D0E2
:10396000212837D0862018E0052818D01F28F9D143
:10397000274B1B68002B46D00A98019009980090AD
:103980009D68089B2046A84707E00A9B0193099B76
:103990000093089B2046FEF73BF805B030BD1D4B59
:1039A00018680A9B0293099B0193089B0093134696
:1039B0000A462146FEF7F2F8EFE70A9B0293099BBD
:1039C0000193089B009313460A4621461248FFF7CD
:1039D0000CFDE2E70A9B0293099B0193089B00936D
:1039E00013460A4621460D48FFF7FFFCD5E70C4B6E
:1039F0001B6853B10A980190099800909D68089B34
:103A00002046A847C9E78C20C7E78C20C5E700BF40
:103A1000BC114020C011402064114020881140207A
:103A2000B811402008B500F0B5F808BD08B500F0A1
:103A3000CFF808BD70B505460E46054C2288FCF748
:103A4000D7FB20803146284606F07EFC70BD00BFC3
:103A5000C421402010B5084B1B8808481A0A027080
:103A60004370022106F070FC044608B1204610BDE8
:103A700006F065FCFAE700BFC4214020C4114020D5
:103A800070B515461E460D4C20706170A270130A69
:103A9000E3700421204606F057FC4FF6FF72042124
:103AA0002046FCF7A5FB064B188015B9FFF7D2FF9F
:103AB00070BD29463046FFF7BDFFF7E7C41140202F
:103AC000C421402070B584B004460D462E4B1978B1
:103AD00001705A784270D8789A7842EA002262805F
:103AE00058791A7942EA0022A280DA799B7943EA6E
:103AF0000223E380C0290CBF0421082140F6FD7297
:103B0000521A934214DC2E1C18BF0126ABB1A6B189
:103B10001E482860E18803AB00930023C82206F00A
:103B20003FFCE288BDF80C309A4206D0812002E0CA
:103B300006F0EDFB822004B070BD0DF10E03009382
:103B40000023C8220221124806F02AFCBDF80E30DC
:103B5000022B01D08420EEE74FF6FF7208210A48BD
:103B6000FCF746FB0246E18821B11EB12868FCF74C
:103B70003FFB024602210648FCF73AFB002814BF2F
:103B800084200020D7E700BFC4114020CC11402082
:103B9000C121402008B50022064B1A7006F0B2FB86
:103BA0004FF4612006F0AFFB06F0AFFB024B18703C
:103BB00008BD00BFC6214020C721402008B540F6FF
:103BC000FD710248FFF746FC08BD00BF413D4000C3
:103BD000574B1B7803B9704710B58AB00DF1260317
:103BE00000930123C8220821524806F0D9FBBDF8F2
:103BF00026300BB90AB010BD01224F4B1A70FFF7E7
:103C0000DDFF4C4B1878BDF82630072B10D9402823
:103C100014D0C02834D0432857D000231A46852119
:103C2000FFF72EFF06F073FB0022434B1A70E1E70B
:103C300000231A468021FFF723FFDBE70AA90023B0
:103C400041F8103D07A8FFF73DFF014690B9BDF8C8
:103C50002230BDF82020BDF81E109DF81D00069CE6
:103C60000094FFF71DFD00231A4601464020FFF790
:103C700007FFD9E700231A464020FFF701FFD3E7EB
:103C8000002107A8FFF71EFF0146B0B92B4B069392
:103C9000BDF82230BDF82020BDF81E109DF81D0093
:103CA00006AC0094FFF7AAFD014660B9BDF82220DA
:103CB000069BC020FFF7E4FEB6E700231A46C020AB
:103CC000FFF7DEFEB0E70022F2E70AA9002341F881
:103CD000143D07A8FFF7F6FE014610BB174B0693ED
:103CE00040F6F973ADF81230BDF82230BDF820204F
:103CF000BDF81E109DF81D0006AC02940DF11204D3
:103D00000194059C0094FFF71FFE014610B10023AB
:103D1000ADF81230069BBDF812204320FFF7B0FE2D
:103D200082E700231A464320FFF7AAFE7CE700BF84
:103D3000C7214020C4114020C6214020C811402086
:103D400070B582B0CDE900232C4B1B7813B9142039
:103D500002B070BD2A4A1378002BFCD10E460446EF
:103D600003782848037063784370638883701B0A64
:103D7000C370A38803711B0A4371062106F0E4FA9D
:103D80000546E8B94FF6FF7206211E48FCF730FAE7
:103D90001D4B1880237813F0040F19D0A18808391F
:103DA00089B23046FFF746FE044668B908216846E6
:103DB000FFF740FE044688B106F0C1FA2046C7E787
:103DC00006F0BDFA2846C3E706F0B9FA2046BFE779
:103DD000A1883046FFF72EFE044638B9FFF73AFEB9
:103DE000044638B9FFF7F4FE0020B1E706F0A7FA61
:103DF0002046ADE706F0A3FA2046A9E7C7214020F8
:103E0000C6214020C4114020C421402010B582B0FA
:103E100004461821408905F0D5FF1821A08905F036
:103E2000D1FF134B1A68053219460B689A42FCD829
:103E30000DF10701608906F065F80DF10601A08912
:103E400006F060F80821608905F0BCFF0821A08910
:103E500005F0B8FF9DF8073013B1122002B010BD75
:103E60009DF80630002B0CBF12200020F6E700BFA3
:103E7000B83E40202DE9F04383B0064609038CB2DA
:103E8000204604F051FF8146002861D000238DF8C0
:103E900007300821708905F095FF09254FF00208C9
:103EA0003F4C08274146708905F08CFF2268053297
:103EB00023689A42FCD83946708905F083FF22684E
:103EC000053223689A42FCD8013DEBD12821708944
:103ED00005F078FF2821B08905F074FF304B1A688F
:103EE000053219460B689A42FCD80DF1060170891B
:103EF00006F008F89DF80630002B14BF04230023B9
:103F00009DF8072013438DF807300DF10601B089A5
:103F100005F0F8FF9DF80630002B14BF082300239E
:103F20009DF8072013438DF807300821708905F0AC
:103F300049FF0821B08905F045FF9DF80730032BA4
:103F400029D00C2B29D003B3172003B0BDE8F08390
:103F50000021204604F074FF0028F6D1104B1A68A7
:103F6000053219460B689342FCD30DF10701204638
:103F700004F07CFF05460121204604F061FF002883
:103F8000E3D1002D85D02846DFE7B9F1000F14BF3B
:103F900000201220D9E70020D7E71120D5E700BF85
:103FA000B83E402010B50446F9B10621408805F01E
:103FB00009FF00B110BD0621E08805F003FF00B144
:103FC00010BD0621A08805F0FDFE00B110BD07213F
:103FD000208805F0F7FEF8B9104B1A6832321946FE
:103FE0000B689A42FCD8002010BD0721408805F0DC
:103FF000E9FE00B110BD0821A08805F0E3FE00B184
:1040000010BD0821E08805F0DDFE00B110BD0821DB
:10401000208805F0D7FE10BD10BD00BFB83E40207F
:10402000038C01339BB20384D0E90623134307D1E9
:10403000044B1B68C82202FB03F20023C0E90623DD
:10404000704700BFB83E4020002008607047000065
:10405000024B1860024B196000207047CC214020B1
:10406000C8214020F8B5038C9BB2BBB1038C9BB236
:10407000012B02D907234362F8BD0269C3689A4243
:104080000DD00269C3689A420ED2C36802699B1AB6
:10409000B0F85C2093420BD207234362F8BD037D46
:1040A000002BEED00023F3E7026983689B1AEFE749
:1040B000056990F82830002BF0D0044606681C4BA8
:1040C0001B680BB101209847B4F85430C3B106EB1C
:1040D0004506002504EB8503DF8E194633463A4634
:1040E000898E206BFCF7ECFE6062636A002BD5D1F1
:1040F00006EB47060135ADB2B4F85430AB42E9D80F
:10410000B4F85630A28EA4F85620A386E36D01229F
:10411000227522691344A168B3FBF1F201FB12334B
:104120002361034B1B68002BB8D000209847F8BDD3
:1041300070234020032801D9062070476823184ABD
:1041400003FB0023B3F854300BB91520704710B5AA
:10415000682303FB002300221A75DA601A619A8E25
:10416000B3F85830934208D068230D4903FB00137D
:10417000B3F85610A3F8562099866822084B02FB24
:10418000003300241C845C6200200021C3E9060186
:10419000012183F82810D86A05F0A0FF204610BD41
:1041A000D0214020032801D90620704710B568238C
:1041B000094C03FB00440021E06A05F08FFF002357
:1041C00084F82830054B1B681BB10020984700205D
:1041D00010BD002010BD00BFD02140207023402022
:1041E000032801D9062070472DE9F84304461646F6
:1041F0001D46FFF7D7FF68234B4A03FB0423002229
:10420000A3F8542015F0030F40F08780002E00F033
:104210008480AF08043D73195B88DBB96823424A88
:1042200003FB0423725B0132A3F86020013FBFB29D
:1042300068223D4B02FB043233889B0043F00303AA
:10424000A2F85630738803B90436082F0AD9022021
:10425000BDE8F8836823344A03FB04230122A3F852
:104260006020E5E74FF0680808FB04F5DFF8B89038
:1042700005F13400BA00314648440AF0DDF808FB85
:1042800004980023C8F85C303FB34346B8F83420A4
:10429000B8F83610002943D07D1EAEB21A2505FBB2
:1042A000046509EB85050020920042F003029A861E
:1042B0000844AB420CD01A8F0433D98E0029F3D1B5
:1042C0006823194A03FB0424E0650320BDE8F88352
:1042D0006823154A03FB0423D8656823124A03FBAD
:1042E00004239A8EA3F858205A68B3F86000D96D59
:1042F00001FB00F1B2FBF1F001FB1021521A9A60B0
:1043000012B90720BDE8F8836822074B02FB04348A
:10431000A4F854700020BDE8F8830220BDE8F883BB
:104320000320BDE8F88300BFD02140204D4B1B681F
:10433000002B00F096802DE9F04F83B04A4E002408
:104340003546DFF828A123E0B0463046FFF78AFE65
:10435000682303FB04531A69DB689A423AD0682346
:1043600003FB04531A69DB689A423BD9682202FBBB
:1043700004521369D2689B1AB8F86020D8F85C70B0
:1043800007FB02F79F4235D901346836042C65D00B
:10439000682303FB045393F82830002BF4D06823E0
:1043A00003FB04535B6A002BCED0E7B23846FFF71D
:1043B000F9FE682303FB04535A6AD3E90601CDE9E9
:1043C0000001284BD3F800803B460021DAF80000BA
:1043D000C047D9E7682303FB04531B7D002BBED1E4
:1043E0000023C9E7682303FB0453DA68D8F80830D0
:1043F0009B1AC1E74FF0680909FB0459B9F820304E
:10440000013B9BB2A9F82030D9F80C00D8F8001075
:10441000D9E906234FF0000B4FF0000CC9E906BCA8
:10442000CDE900230F4BD3F800B0E3B27A0001EBE3
:104430004001DAF80000D847D9F80C301F44D8F80A
:104440000820B7FBF2F302FB1377C9F80C700023C6
:1044500089F814304046FFF705FE95E703B0BDE844
:10446000F08F7047CC214020D0214020C82140202F
:1044700070B504460D461646032812D8682303FB80
:1044800004F30D4AD55085B168230B4A03FB04237E
:104490005E606822084B02FB04340023A4F8543009
:1044A00070BD0420FBF790FEE8E7682303FB0423BC
:1044B00000225A60EDE700BFD021402070B50446CD
:1044C0000E46154603280BD86823094A03FB04222D
:1044D0001663D5620749284605F068FD20B970BD0E
:1044E0000420FBF771FEEFE70420FBF76DFEF6E713
:1044F000D021402021404000014B1860704700BF90
:104500007023402008B5836B0122027502691344B1
:104510008168B3FBF1F201FB12330361024B1B68AC
:104520000BB10020984708BDC82340200020086038
:1045300070470000024B1860024B19600020704762
:10454000782340207423402090F82830002B5AD044
:1045500030B587B00D46044690F832308DF81730EC
:1045600090F84020DAB101230DF11702194690F8B6
:10457000300005F0EBF86062636A73B9A28E94F8BC
:104580003130082B2DD00C2B35D00020FBF71CFE32
:104590001D4B1B680BB10120984707B030BDFF22AF
:1045A0008DF80C205B008DF80D3000238DF80E3057
:1045B0008DF80F3090F830000123009304AB03AA6C
:1045C000042105F02FF96062636A002BE5D19DF8A4
:1045D000103003F00803002B14BF0723002363628D
:1045E000CAE794F830000094084B294604F014FF01
:1045F0000028CDD0C9E794F830000094034B294639
:1046000004F070FFF4E77047C823402005454000E0
:1046100008B1062070470D4BDB8E0BB91520704793
:1046200010B50A4B00241C75DC601C6100200021C1
:10463000C3E90601DC871C845C62012183F8281031
:10464000D86A05F04BFD204610BD00BF80234020F6
:1046500008B10620704710B5084C0021E06A05F04B
:104660003DFD002384F82830054B1B681BB100205A
:104670009847002010BD002010BD00BF80234020BF
:10468000C823402008B106207047F8B51C461646DE
:104690000D46FFF7DDFF394B002283F83020DA8624
:1046A00014F0030F66D1002E64D0A708231FF21860
:1046B00052884AB9F35A0133304A9387013FBFB257
:1046C000012F05D90220F8BD01222C4B9A87F7E76C
:1046D0002A4CBA00314604F1320009F0ADFEA38E37
:1046E0000BB90320F8BD13F0010F01D00320F8BD72
:1046F0002A78042A2ED007D8022A3DD11F4A92F8E0
:10470000402002B31020F8BD102A01D0FF2A33D177
:1047100003EB4303022293FBF2F3184A938608212A
:1047200082F831109BB29363144A5368908F916B57
:1047300001FB00F1B3FBF1F001FB10315B1A936058
:10474000ABB90720F8BD0D4A0C2182F831105B008F
:104750009363E9E7094A928F012A01D00320F8BD4B
:10476000064A002182F83110DB009363DCE7D7862C
:104770000020F8BD0220F8BD0320F8BD80234020B2
:1047800070B582B0044690F83130002B41D1C38F10
:104790005A1EC287002B5DD13A4B1A68C82303FB0F
:1047A00002F3009300230193838E5A1E82868BB1FD
:1047B000638EE3872269E3689A4210D02269E36836
:1047C0009A4210D2E36822699B1A072B0FD807235D
:1047D00063623FE00021C06A05F080FCE8E7237DCA
:1047E000002BF4D1EAE72269A3689B1AEDE722695E
:1047F0002568AE186B4603CBA85071600123237562
:1048000023690833A168B3FBF1F201FB1233236182
:1048100020E0D0E90623134307D11A4B1B68C822B6
:1048200002FB03F20023C0E90623238C9BB29BB951
:104830002269E3689A4214D02269E3689A4215D249
:10484000E36822699B1A228F9A4213D9238C013381
:104850009BB2238402B070BD238C01339BB22384AE
:10486000F8E7237D002BE7D00023ECE72269A3685B
:104870009B1AE8E72369216819442046FFF764FE84
:10488000E8E700BFB83E40202DE9F04383B0354B48
:104890001D68DDB1344B93F82830BBB1324B5B6AF5
:1048A000BBB9314B1A69DB689A4223D02E4B1A6987
:1048B000DB689A4224D92C4A1369D2689B1A2A4A87
:1048C000918F946B04FB01F49C421ED903B0BDE8A8
:1048D000F0830020FFF7BCFE234B5A6AD3E906455C
:1048E000224B1868CDE900451E4B1C680023194671
:1048F000A047EBE71C4B1B7D002BD7D10023DEE745
:10490000194AD16893685B1AD9E71646D7681168C7
:10491000D2E906234FF000084FF00009C6E90689E6
:1049200012480068CDE90023002322463944A847F5
:10493000F3681C44B268B4FBF2F302FB1344F46066
:1049400000233375338C9BB2002BBFD033693168A1
:1049500019443046FFF7F8FD338C013B9BB233849A
:10496000B4E700BF782340208023402074234020F8
:1049700070B50E461546044698B904EBC4030D4ABB
:1049800042F833608EB104EBC4030A4A02EBC3035E
:104990005D6004EBC404074B03EBC4040023E3860F
:1049A00070BD0420FBF710FCE7E702EBC303002215
:1049B0005A60EEE78023402070B50D461646044647
:1049C00088B90D4AE000031902EBC303DD62031945
:1049D00002EBC30383F840601A460849284605F0F5
:1049E000E5FA20B970BD0420FBF7EEFBE9E70420EF
:1049F000FBF7EAFBF6E700BF802340208147400039
:104A0000014B1860704700BFC823402008B1062042
:104A100070470A4BB3F840300BB91520704730B4DB
:104A2000064B1875D860186100240025C3E90645B7
:104A30001862012283F8242030BC7047D82340201C
:104A400008B10620704708B50022064B83F82420E1
:104A5000054B1B681BB110469847002008BD00207D
:104A600008BD00BFD8234020282440200020086033
:104A700070470000024B1860024B1960002070471D
:104A8000D0234020CC23402008B10620704770B5C9
:104A90001C461546FFF7D4FF0022324BA3F84020F6
:104AA00014F0030F57D1002D55D0A608231FEA1884
:104AB000528852B9EB5A01332A4AA2F84830013ED3
:104AC000B6B2042E06D9022070BD0122254BA3F8F0
:104AD0004820F6E7234CB200294604F1300009F0E3
:104AE000ABFC0023636416B3218E628E002A34D09F
:104AF000FF2901D1012A32D11A4B741EA4B203EB53
:104B0000840400211144A3420FD0988EDA8E42B162
:104B10000433FF28F6D1012AF4D0124B5964032044
:104B200070BD104B5964032070BD0E4B59640D4A83
:104B30005368B2F84800516C01FB00F1B3FBF1F08F
:104B400001FB10315B1A93600BB9072070BDA2F80E
:104B50004060002070BD022070BD032070BD0320A6
:104B600070BD00BFD8234020D0E90623134307D1EE
:104B70003A4B1B68C82202FB03F20023C0E906235C
:104B80000269C3689A420DD00269C3689A420ED284
:104B9000C36802699B1AB0F844209A420BD90723D4
:104BA00003627047037D002BEED00023F3E7026918
:104BB00083689B1AEFE72DE9F04182B0056990F810
:104BC0002430002B47D004460668254B1B680BB1E8
:104BD00001209847B4F840306BB306EB450600253A
:104BE0004FF0FF0811E001A9E06AFCF775FB2062B5
:104BF0009DF804303380236A6BBB06EB4706013512
:104C0000ADB2B4F84030AB4215D905F10C0334F81D
:104C1000233004EB8502578EFF2BE4D08DF80480FF
:104C20005B008DF8053033463A4601A9A06AFCF7CF
:104C300058FC2062DFE7636C01222275226913446D
:104C4000A168B3FBF1F201FB12332361044B1B6833
:104C50000BB10020984702B0BDE8F081B83E40207B
:104C6000282440202DE9F04383B02F4B1D68E5B187
:104C70002E4B93F82430C3B12C4B1B6AC3B92B4B7A
:104C80001A69DB689A4224D0284B1A69DB689A4279
:104C900025D9264A1369D2689B1A244AB2F84810CB
:104CA000546C04FB01F49C421ED903B0BDE8F083B0
:104CB0000020FFF7C5FE1D4B1A6AD3E906451C4BC1
:104CC0001868CDE90045184B1C6800231946A04719
:104CD000EBE7164B1B7D002BD6D10023DDE7134AF3
:104CE000D16893685B1AD8E71646D7681168D2E98D
:104CF00006234FF000084FF00009C6E906890C486A
:104D00000068CDE900230023620001EB4701A847BA
:104D1000F3681C44B268B4FBF2F302FB1344F46082
:104D200000233375C1E700BFD0234020D8234020A3
:104D3000CC23402070B50E4615460446A0B904EBBE
:104D400084031B010E4AD65096B104EB84030C4A2F
:104D500002EB03135D6004EB8404094B03EB0414C2
:104D60000023A4F8403070BD0420FBF72DFAE6E7DD
:104D700004EB840302EB031300225A60EBE700BF4D
:104D8000D823402070B50D461646044678B90A4A25
:104D9000A000031902EB0313DE62031902EB0313F5
:104DA0009D621A4605492846FCF7E0FB70BD0420C9
:104DB000FBF70AFAEBE700BFD8234020694B40001D
:104DC000014B1860704700BF282440200020086075
:104DD00070470000024B1860024B196000207047BA
:104DE000302440202C24402090F828303BB370B56C
:104DF00084B00D460446124B1B680BB10120984746
:104E0000238E1A0AADF80C201B02ADF80E30668E08
:104E1000012303AA022194F8290004F00FFE606226
:104E2000636A13B1636A04B070BD94F829000094FA
:104E3000044B3246294604F0ABFB6062F2E7704750
:104E400038254020E54F400008B5D0E9062313433C
:104E500007D1194B1B68C82202FB03F20023C0E9EB
:104E60000623038C9BB293B90269C3689A4213D09C
:104E70000269C3689A4214D2C36802699B1A028FFE
:104E80009A4212D9038C01339BB2038408BD038C70
:104E900001339BB2038408BD037D002BE8D00023BF
:104EA000EDE7026983689B1AE9E70169036803EB90
:104EB0004101FFF799FF08BDB83E4020032801D902
:104EC000062070470E4B03EB80139B8E0BB9152009
:104ED000704710B50A4B03EB801000240475C460C2
:104EE00004610484446200220023C0E906230121F6
:104EF00080F82810C06A05F0F1F8204610BD00BF08
:104F000038244020032801D90620704710B5094CE9
:104F100004EB80140021E06A05F0E0F8002384F837
:104F20002830054B1B681BB100209847002010BD9E
:104F3000002010BD3824402038254020032801D906
:104F400006207047F8B51E4615460446FFF7DAFFFF
:104F5000234B03EB841300229A8616F0030F3CD1F7
:104F6000002D3AD0B708331FEA1852885AB91C4AA4
:104F700002EB8412EB5A01339387013FBFB2012F3A
:104F800007D90220F8BD164B03EB841301229A8740
:104F9000F5E7134E06EB8410BA002946303009F0CD
:104FA0004BFA06EB8416738E0BB90320F8BDB3637E
:104FB000B28F03FB02F3B3F5804F01D30320F8BD9A
:104FC0007268B2FBF3F003FB1023D21AB2600AB985
:104FD0000720F8BDB7860020F8BD0220F8BD00BF4D
:104FE0003824402030B585B0044690F8295003237A
:104FF000ADF80C300023ADF80E30012303AA0221D6
:10500000284604F01BFD034648B16362636AF3B1AE
:10501000344B1B680BB10020984705B030BD00230E
:1050200002AA0221284604F012FD03460028ECD112
:10503000029B4FEA334313F4803F01D00723E4E798
:1050400003F40043002B14BF0B230023DDE7A26B06
:105050000123237521690A44A068B2FBF0F100FB2B
:105060001122226194F829500322ADF80C204FF44C
:105070008062ADF80E2003AA0221284604F0DEFC6F
:10508000034608B16362C3E7002301AA0221284650
:1050900004F0DDFC03460028F4D1019B4FEA3343C2
:1050A000019343F0800348F20302ADF808204FF467
:1050B0008062ADF80A201A0CADF80C20ADF80E3065
:1050C000012302AA0221284604F0B8FC0346002866
:1050D000D8D1002303AA0221284604F0AFFC0346DE
:1050E000D0E700BF38254020484B1B68002B00F05C
:1050F0008C802DE9F04F83B0454D00242F46DFF81A
:10510000149128E0E6B23046FFF7FCFE07EB84136B
:105110005A6AD3E90601CDE900013C4BD3F800807F
:1051200033460021D9F80000C04710E007EB841394
:105130001B7D0BBB002304E007EB8413DA68AB682C
:105140009B1AAA8FAE6B06FB02F69E4220D9013451
:105150004035042C56D007EB841393F82830002BED
:10516000F5D007EB84135B6A002BCBD107EB8413DC
:105170001A69DB689A42D9D007EB84131A69DB6895
:105180009A42D9D907EB84121369D2689B1AD8E7DF
:1051900007EB841ADAF80C002968DAE906234FF0E5
:1051A000000B4FF0000CCAE906BCCDE90023174BF9
:1051B000D3F800B0E3B2720001EB4001D9F800006F
:1051C000D847DAF80C301E44AA68B6FBF2F302FBAB
:1051D0001366CAF80C6000238AF81430BAF820303D
:1051E0009BB2002BB3D0DAF810102B6803EB41010F
:1051F0002846FFF7F9FDBAF82030013B9BB2AAF828
:105200002030A4E703B0BDE8F08F70473024402081
:10521000382440202C24402070B504460D46164604
:1052200003280DD8A3010B4AD5506DB1094B03EBF0
:1052300084135E60074B03EB84140023A38670BDC8
:105240000420FAF7C1FFEDE702EB841300225A6055
:10525000F0E700BF3824402070B505460E461446DE
:1052600003280BD8094A02EB851282F82960D46220
:105270000749204604F09AFE20B970BD0420FAF7D1
:10528000A3FFEFE70420FAF79FFFF6E7382440205A
:10529000494E4000014B1860704700BF3825402040
:1052A000A8B110B504468378002B14BF0321042154
:1052B000008804F087FD032800D010BDA378002BE0
:1052C00014BF07210621208804F07CFD10BD0020BA
:1052D000704740B108B58378591A18BF012100887A
:1052E00004F0EAFD08BD00207047000008B56428FE
:1052F00018D007DD66281AD00DDA0221114800F017
:1053000049F808BD012817D0022806D104210E480B
:1053100000F040F808BD67280ED004210B4800F0CB
:1053200039F808BD02210A4800F034F808BD02210E
:10533000084800F02FF808BD0421074800F02AF8BB
:1053400008BD00BF584241001842410038424100A8
:1053500048424100504241002842410008B501281E
:1053600008D002280BD000B108BD0221064800F089
:1053700011F808BD0121054800F00CF808BD012115
:10538000034800F007F8EFE7644241006042410043
:105390006C424100F8B50446154E3060154B19704B
:1053A000154F00233B600178144DC91A18BF012125
:1053B0002846FFF78EFF6178003118BF0121281DB4
:1053C000FFF787FFA178003118BF012105F1080020
:1053D000FFF77FFF0A4B19683B68326802EB8302D4
:1053E000D378642202FB0313064A1360F8BD00BFA2
:1053F00044254020402540203C254020A845410030
:10540000B83E40204825402010B5064C2046FFF706
:1054100047FF201DFFF744FF04F10800FFF740FF9E
:1054200010BD00BFA8454100F8B52A4B1A68002AF4
:105430004FD0294B1B68294909685B1A002B48DBB0
:10544000274D2B68591C274B1878B1FBF0F300FB54
:1054500013132B6002EB830612F82310224C003149
:1054600018BF01212046FFF734FF7178003118BFC3
:105470000121201DFFF72DFFB178003118BF012158
:1054800004F10800FFF725FF144C2A68114B1B6834
:1054900003EB8203DA78642303FB02F31E46002742
:1054A0005801D90EC01A61EB07018B0043EA9073D3
:1054B0008200901943EB0701CB0043EA5073C2000E
:1054C00010461946C822002308F0A4FD236818449A
:1054D0002060F8BD44254020B83E402048254020AB
:1054E0003C25402040254020A845410008B501F05A
:1054F00031FA002001F04AFA01F052FA08BD00002A
:1055000008B5104803F074F83E21002001F0E0F9DE
:1055100001F008FA0028FBD001F00CFA0A4A0B4B04
:105520009A6201F00FFA0028FBD0022001F082F904
:10553000002001F09BF902F0D5FF024803F058F873
:1055400008BD00BF80D1F008013F182000060E40C2
:10555000104B1B681A6853881A4403781844904209
:1055600011D24378042B10D08B4209D00378184411
:10557000904206D24378042B09D08B42F6D107E043
:1055800070470020704700207047002070470020BF
:10559000704700BF5825402008B5034B987800F0AD
:1055A0007F0002F0F5FB08BD80314520194B1B78C8
:1055B0004BB3194B1B681B681A79824225D970B40A
:1055C000164A13605C881C44A34220D200250126A1
:1055D00007E0124A13600FE01A7813443546A342DD
:1055E0000CD25A78042AF7D19A788242F4D1DA7828
:1055F0008A42F1D1002DECD1012002E0074A13606C
:10560000002070BC704700207047002070470020C9
:10561000F7E700BF54254020582540205C25402056
:10562000F8B504460021FFF7C1FF064608B9304629
:10563000F8BD0F4B1B685B6853F82470FB689847F4
:1056400001462046FFF7B2FF06460028EFD0094B7F
:105650001C68052529462046FFF77AFF044618B145
:10566000807802F0C7FBF5E77B689847DFE700BF6B
:10567000582540205C25402070B50646FFF796FF70
:105680000346C8B10D4B1C68052529462046FFF787
:105690005FFF044640B18288C178807802F056FDF1
:1056A00003460028F1D107E0054B1B685B6853F8FF
:1056B00026301B6898470346184670BD5C2540207D
:1056C0005825402008B502F0BBFA08BD38B50D4B8F
:1056D0001B7883B10C4B1B681B681B795BB10024E2
:1056E000094D2046FFF79CFF0134E4B22B681B688C
:1056F0001B79A342F5D80023024A1370034A138092
:1057000038BD00BF54254020582540204C2540205E
:1057100038B50D4B1B78B3B10C4B1B681A68127966
:105720008AB10024094D06E00134E4B22B681A68FE
:105730001279A24207D95B6853F824301B69002B09
:10574000F2D09847F0E738BD542540205825402036
:1057500070B5A44B00229A811A615A611B7813F02C
:10576000800F14D113F0600F00F01C819D4B1B784B
:1057700003F01F03012B00F004829A4B1B7803F007
:105780001F03022B00F05E820023184670BD954A6D
:10579000D288002A00F0948213F0600FE6D113F053
:1057A0001F0307D18F494978062916D0082900F030
:1057B000BA8059B1012B00F0BE80022BD6D1894BA3
:1057C0005B78002B00F0E0800023CCE1022AD4D1EA
:1057D0000221854802F008FB01E1824B5A88D4B2CD
:1057E000130A013B0E2B00F20D82DFE813F00F00CD
:1057F0001E0079000B020B023F004D000B020B0252
:105800000B020B020B020B020B02700002F0B6FA45
:1058100028B9764B9868017802F0E6FA2BE0734BD2
:105820001868017802F0E0FA25E002F0A7FA80B1EA
:105830006E4B9B685B7CA34298D96C4B1B6953F8F9
:105840003400418802F0D0FA664B9B6802225A70FD
:1058500011E0664B1B685B7CA34287D9634B5B6896
:1058600053F83400418802F0BFFAEDE75F4BD86887
:10587000017802F0B9FA5B4BDA889B89934240F2D7
:10588000AE80584B9A81AAE002F078FA88B9574B5B
:105890009B685B7CA3427FF669AF544B1B6953F84E
:1058A0003400418802F0A0FA4E4B9B6807225A70E0
:1058B000E1E74E4B1B685B7CA3427FF657AF4B4B37
:1058C0005B6853F83400418802F08EFAECE7474BEE
:1058D000586900283FF451AF418802F085FACAE7C1
:1058E000D2B2012A1CD0B2B1022A7FF43FAF4049A4
:1058F000072201393F48002311F8014F20F8024BDD
:105900000133DBB29342F7D35200911C3A48017045
:1059100002F06AFAAFE70421384802F065FAAAE714
:1059200037490822E5E7012A7FF427AF01213548EE
:1059300002F05AFA53E02B4949780A297FF43DAF27
:10594000012A40F01E812F4B1B78002B00F019819B
:10595000244B1C792C4B1D682B681B79A34240F209
:10596000108100212046FFF721FE00283FF4FEAE03
:105970006B6853F82430DB689847244B187001217A
:10598000184602F031FA2AE0022A7FF4F6AE154BEF
:10599000187902F05BFA1E4B18800221184602F0BB
:1059A00023FA1CE013F01F0340F0D1800D4A527817
:1059B000013A082A00F2CB80DFE812F02E00C9007D
:1059C0003E00C9000900C900C900C9006F00054BAD
:1059D000DB88002B7FF4D1AE0E4A024B1A61012303
:1059E000D3E600BF803145204C25402000024020F6
:1059F000F8014020D6014020D4014020E801402099
:105A0000EC014020542540205825402050254020BE
:105A10004E254020995540009E4BDB88002B7FF49B
:105A2000ACAE9C4B5B88012B7FF4A7AE9A4A1388DF
:105A300023F002031380D2E7964BDB88002B7FF420
:105A40009CAE944B5B88022B40F0DE8002F096F90E
:105A500000283FF48BAE8F4B1B79002B7FF486AE72
:105A6000FFF734FE8B4B9B881B0A013B032B00F294
:105A7000CD80DFE803F002060A0E884A854B1A61E2
:105A8000ADE7874A834B1A61A9E7864A814B1A61C1
:105A9000A5E7854A7F4B1A61A1E77E4BDB88002B87
:105AA0007FF46BAE02F088F900283FF45FAE02F09D
:105AB00065F9002837D0774B9A787C4B9B685B7CE4
:105AC0009A423FF753AEFFF701FE724B9B78784A3C
:105AD0001370002B83D002F051F900282BD0744BA7
